{"abi":[{"type":"constructor","inputs":[],"stateMutability":"nonpayable"},{"type":"function","name":"approveHandlers","inputs":[{"name":"tokens","type":"address[]","internalType":"address[]"},{"name":"protocols","type":"address[]","internalType":"address[]"}],"outputs":[],"stateMutability":"payable"},{"type":"function","name":"recoverTokens","inputs":[{"name":"tokens","type":"address[]","internalType":"address[]"}],"outputs":[],"stateMutability":"payable"},{"type":"function","name":"whack","inputs":[{"name":"paramsArray","type":"tuple[]","internalType":"struct WhackAMoleBotV1.SwapParams[]","components":[{"name":"protocol","type":"uint8","internalType":"uint8"},{"name":"handler","type":"address","internalType":"address"},{"name":"tokenIn","type":"address","internalType":"address"},{"name":"tokenOut","type":"address","internalType":"address"},{"name":"fee","type":"uint24","internalType":"uint24"},{"name":"amount","type":"uint256","internalType":"uint256"}]},{"name":"minAmountOut","type":"uint256","internalType":"uint256"}],"outputs":[{"name":"","type":"uint256","internalType":"uint256"}],"stateMutability":"payable"},{"type":"error","name":"AddressEmptyCode","inputs":[{"name":"target","type":"address","internalType":"address"}]},{"type":"error","name":"AddressInsufficientBalance","inputs":[{"name":"account","type":"address","internalType":"address"}]},{"type":"error","name":"FailedInnerCall","inputs":[]},{"type":"error","name":"SafeERC20FailedOperation","inputs":[{"name":"token","type":"address","internalType":"address"}]},{"type":"error","name":"TradeFailed","inputs":[]},{"type":"error","name":"Unauthorized","inputs":[]}],"bytecode":{"object":"0x60a060405234801561001057600080fd5b5033608052608051610bf9610030600039600061032c0152610bf96000f3fe6080604052600436106100345760003560e01c80639c832f9314610039578063bc2078fb1461004e578063c0f757c014610061575b600080fd5b61004c6100473660046107cc565b610086565b005b61004c61005c36600461080e565b610154565b61007461006f36600461087a565b610258565b60405190815260200160405180910390f35b61008e610321565b8060005b8181101561014e5760008484838181106100ae576100ae6108f5565b90506020020160208101906100c39190610927565b6040516370a0823160e01b81523060048201529091506101459033906001600160a01b038416906370a0823190602401602060405180830381865afa158015610110573d6000803e3d6000fd5b505050506040513d601f19601f820116820180604052508101906101349190610942565b6001600160a01b038416919061036b565b50600101610092565b50505050565b600019838260005b8281101561024e576000888883818110610178576101786108f5565b905060200201602081019061018d9190610927565b905060005b838110156102445760008888838181106101ae576101ae6108f5565b90506020020160208101906101c39190610927565b60405163095ea7b360e01b81526001600160a01b038083166004830152602482018a90529192509084169063095ea7b3906044016020604051808303816000875af1158015610216573d6000803e3d6000fd5b505050506040513d601f19601f8201168201806040525081019061023a919061095b565b5050600101610192565b505060010161015c565b5050505050505050565b6000610262610321565b600083815b818110156102f4576000878783818110610283576102836108f5565b905060c0020180360381019061029991906109ed565b9050836000036102af578060a0015193506102b7565b60a081018490525b805160ff166000036102d3576102cc816103c2565b93506102eb565b805160ff166001036102eb576102e881610504565b93505b50600101610267565b508382101561031657604051632d8ef0cf60e01b815260040160405180910390fd5b5090505b9392505050565b336001600160a01b037f00000000000000000000000000000000000000000000000000000000000000001614610369576040516282b42960e81b815260040160405180910390fd5b565b604080516001600160a01b038416602482015260448082018490528251808303909101815260649091019091526020810180516001600160e01b031663a9059cbb60e01b1790526103bd908490610611565b505050565b6040805160028082526060808301845260009390929190602083019080368337019050509050826040015181600081518110610400576104006108f5565b60200260200101906001600160a01b031690816001600160a01b031681525050826060015181600181518110610438576104386108f5565b60200260200101906001600160a01b031690816001600160a01b031681525050600083602001516001600160a01b03166338ed17398560a0015160008530426040518663ffffffff1660e01b8152600401610497959493929190610a7b565b6000604051808303816000875af11580156104b6573d6000803e3d6000fd5b505050506040513d6000823e601f3d908101601f191682016040526104de9190810190610aee565b9050806001815181106104f3576104f36108f5565b602002602001015192505050919050565b6040805161010081018252828201516001600160a01b0390811682526060808501518216602080850191825260808088015162ffffff908116878901908152309588019586524292880192835260a0808b0151908901908152600060c08a0181815260e08b01828152968d01519b5163414bf38960e01b81528b518b16600482015297518a1660248901529251909316604487015295518716606486015291516084850152935160a48401525160c483015251831660e482015290939091169063414bf38990610104016020604051808303816000875af11580156105ed573d6000803e3d6000fd5b505050506040513d601f19601f8201168201806040525081019061031a9190610942565b60006106266001600160a01b03841683610679565b9050805160001415801561064b575080806020019051810190610649919061095b565b155b156103bd57604051635274afe760e01b81526001600160a01b03841660048201526024015b60405180910390fd5b606061031a8383600084600080856001600160a01b0316848660405161069f9190610b94565b60006040518083038185875af1925050503d80600081146106dc576040519150601f19603f3d011682016040523d82523d6000602084013e6106e1565b606091505b50915091506106f18683836106fb565b9695505050505050565b6060826107105761070b82610757565b61031a565b815115801561072757506001600160a01b0384163b155b1561075057604051639996b31560e01b81526001600160a01b0385166004820152602401610670565b508061031a565b8051156107675780518082602001fd5b604051630a12f52160e11b815260040160405180910390fd5b60008083601f84011261079257600080fd5b50813567ffffffffffffffff8111156107aa57600080fd5b6020830191508360208260051b85010111156107c557600080fd5b9250929050565b600080602083850312156107df57600080fd5b823567ffffffffffffffff8111156107f657600080fd5b61080285828601610780565b90969095509350505050565b6000806000806040858703121561082457600080fd5b843567ffffffffffffffff8082111561083c57600080fd5b61084888838901610780565b9096509450602087013591508082111561086157600080fd5b5061086e87828801610780565b95989497509550505050565b60008060006040848603121561088f57600080fd5b833567ffffffffffffffff808211156108a757600080fd5b818601915086601f8301126108bb57600080fd5b8135818111156108ca57600080fd5b87602060c0830285010111156108df57600080fd5b6020928301989097509590910135949350505050565b634e487b7160e01b600052603260045260246000fd5b80356001600160a01b038116811461092257600080fd5b919050565b60006020828403121561093957600080fd5b61031a8261090b565b60006020828403121561095457600080fd5b5051919050565b60006020828403121561096d57600080fd5b8151801515811461031a57600080fd5b634e487b7160e01b600052604160045260246000fd5b60405160c0810167ffffffffffffffff811182821017156109b6576109b661097d565b60405290565b604051601f8201601f1916810167ffffffffffffffff811182821017156109e5576109e561097d565b604052919050565b600060c082840312156109ff57600080fd5b610a07610993565b823560ff81168114610a1857600080fd5b8152610a266020840161090b565b6020820152610a376040840161090b565b6040820152610a486060840161090b565b6060820152608083013562ffffff81168114610a6357600080fd5b608082015260a0928301359281019290925250919050565b600060a08201878352602087602085015260a0604085015281875180845260c08601915060208901935060005b81811015610acd5784516001600160a01b031683529383019391830191600101610aa8565b50506001600160a01b03969096166060850152505050608001529392505050565b60006020808385031215610b0157600080fd5b825167ffffffffffffffff80821115610b1957600080fd5b818501915085601f830112610b2d57600080fd5b815181811115610b3f57610b3f61097d565b8060051b9150610b508483016109bc565b8181529183018401918481019088841115610b6a57600080fd5b938501935b83851015610b8857845182529385019390850190610b6f565b98975050505050505050565b6000825160005b81811015610bb55760208186018101518583015201610b9b565b50600092019182525091905056fea264697066735822122028355dde700869f1068266cb64df61e008652732593f53c081dc02e7f28cfb2464736f6c63430008170033","linkReferences":{}},"methodIdentifiers":{"approveHandlers(address[],address[])":"bc2078fb","recoverTokens(address[])":"9c832f93","whack((uint8,address,address,address,uint24,uint256)[],uint256)":"c0f757c0"},"id":1}